:020000040000FA
:04000000EDEF0AF026
:100600000001020400205242332E53616C646F20BB
:100610005242342E4465706F736974617220524285
:10062000352E536163617220002020204361697878
:100630006120456C6574726F6E69636F202862611A
:100640006E636F20554E494645492900205242307D
:1006500020702F20766F6C74617220202020202063
:1006600020202020004465706F73697461723A52D3
:100670002400416775617264652E2E2E0053616CF3
:10068000646F3A2052240020436F6E74613A200058
:1006900053616361723A52240000F19E0E0EC16EE6
:1006A000000E926E000E956E000E836E64EF05F0E4
:1006B000300E0418D8A45FEF03F061EF03F063EF8E
:1006C00003F03F0E836E310E0418D8A46AEF03F0D6
:1006D0006CEF03F06EEF03F0060E836E320E04181B
:1006E000D8A475EF03F077EF03F079EF03F05B0E1A
:1006F000836E330E0418D8A480EF03F082EF03F06A
:1007000084EF03F04F0E836E340E0418D8A48BEFE1
:1007100003F08DEF03F08FEF03F0660E836E350E5E
:100720000418D8A496EF03F098EF03F09AEF03F0C3
:100730006D0E836E360E0418D8A4A1EF03F0A3EF5C
:1007400003F0A5EF03F07D0E836E370E0418D8A4D6
:10075000ACEF03F0AEEF03F0B0EF03F0070E836EE3
:10076000380E0418D8A4B7EF03F0B9EF03F0BBEFCD
:1007700003F07F0E836E390E0418D8A4C2EF03F085
:10078000C4EF03F0C6EF03F06F0E836E808A80988B
:1007900080968094000E066E000E056E054A062AAD
:1007A000DC0E055C050E0658D8A0D9EF03F0DBEF90
:1007B00003F0CEEF03F0300E0318D8A4E2EF03F0FD
:1007C000E4EF03F0E6EF03F03F0E836E310E031803
:1007D000D8A4EDEF03F0EFEF03F0F1EF03F0060E16
:1007E000836E320E0318D8A4F8EF03F0FAEF03F08B
:1007F000FCEF03F05B0E836E330E0318D8A403EFF7
:1008000004F005EF04F007EF04F04F0E836E340E92
:100810000318D8A40EEF04F010EF04F012EF04F068
:10082000660E836E350E0318D8A419EF04F01BEF83
:1008300004F01DEF04F06D0E836E360E0318D8A47D
:1008400024EF04F026EF04F028EF04F07D0E836E11
:10085000370E0318D8A42FEF04F031EF04F033EF74
:1008600004F0070E836E380E0318D8A43AEF04F094
:100870003CEF04F03EEF04F07F0E836E390E031858
:10088000D8A445EF04F047EF04F049EF04F06F0EF1
:10089000836E809A808880968094000E066E000E8B
:1008A000056E054A062ADC0E055C050E0658D8A022
:1008B0005CEF04F05EEF04F051EF04F0300E02182C
:1008C000D8A465EF04F067EF04F069EF04F03F0E81
:1008D000836E310E0218D8A470EF04F072EF04F0AA
:1008E00074EF04F0060E836E320E0218D8A47BEF6C
:1008F00004F07DEF04F07FEF04F05B0E836E330EA7
:100900000218D8A486EF04F088EF04F08AEF04F010
:100910004F0E836E340E0218D8A491EF04F093EFBB
:1009200004F095EF04F0660E836E350E0218D8A41D
:100930009CEF04F09EEF04F0A0EF04F06D0E836EC8
:10094000360E0218D8A4A7EF04F0A9EF04F0ABEF1D
:1009500004F07D0E836E370E0218D8A4B2EF04F0B7
:10096000B4EF04F0B6EF04F0070E836E380E0218F1
:10097000D8A4BDEF04F0BFEF04F0C1EF04F07F0E88
:10098000836E390E0218D8A4C8EF04F0CAEF04F041
:10099000CCEF04F06F0E836E809A809880868094EE
:1009A000000E066E000E056E054A062ADC0E055C7A
:1009B000050E0658D8A0DFEF04F0E1EF04F0D4EF05
:1009C00004F0300E0118D8A4E8EF04F0EAEF04F0C8
:1009D000ECEF04F03F0E836E310E0118D8A4F3EF54
:1009E00004F0F5EF04F0F7EF04F0060E836E320E1C
:1009F0000118D8A4FEEF04F000EF05F002EF05F0B7
:100A00005B0E836E330E0118D8A409EF05F00BEFCF
:100A100005F00DEF05F04F0E836E340E0118D8A4CB
:100A200014EF05F016EF05F018EF05F0660E836E73
:100A3000350E0118D8A41FEF05F021EF05F023EFC4
:100A400005F06D0E836E360E0118D8A42AEF05F05E
:100A50002CEF05F02EEF05F07D0E836E370E01189A
:100A6000D8A435EF05F037EF05F039EF05F0070EA4
:100A7000836E380E0118D8A440EF05F042EF05F060
:100A800044EF05F07F0E836E390E0118D8A44BEFAA
:100A900005F04DEF05F04FEF05F06F0E836E809A75
:100AA000809880968084000E066E000E056E054AC2
:100AB000062ADC0E055C050E0658D8A062EF05F08C
:100AC00064EF05F057EF05F081B069EF05F06BEFCB
:100AD00005F058EF03F0809A809880968094120079
:100AE000000E246E000E236E060EC16E000E956E73
:100AF000000E966E010E936E97EC0AF08168010E5F
:100B000019EC0BF0800E19EC0BF0290E086E060E96
:100B1000096EC5EC0AF0200E926E3F0E936EC00E69
:100B200019EC0BF0050E086E060E096EC5EC0AF006
:100B3000180E19EC0BF081A6A0EF05F0A2EF05F05E
:100B4000B0EF05F081A8A7EF05F0A9EF05F0B0EF31
:100B500005F081BAAEEF05F0B0EF05F012EF07F047
:100B600081CF2DF023502410D8A4B9EF05F0BBEFAE
:100B700005F007EF06F0F80E936E010E19EC0BF07E
:100B8000800E19EC0BF0880E086E060E096EC5EC8F
:100B90000AF0000E0F6E000E0E6E67EC09F00EC02C
:100BA00030F00FC031F010C032F011C033F0000E41
:100BB0002F6E000E2E6E250E2E24D96E000E2F20C5
:100BC000DA6E300E2E24E16E000E2F20E26EE7501A
:100BD0001A6E2E501A5CDF6E2E4A2F2A2FBEFAEFA5
:100BE00005F02F5009E1040E2E5CD8A0FAEF05F0B5
:100BF000FCEF05F0DBEF05F0C00E19EC0BF0720E08
:100C0000086E060E096EC5EC0AF02AEC08F02DB647
:100C10000CEF06F00EEF06F056EF06F0010E19ECA1
:100C20000BF0800E19EC0BF07D0E086E060E096EAF
:100C3000C5EC0AF0000E2A6E000E296E300E292433
:100C4000D96E000E2A20DA6EDF5004EC0BF0294A30
:100C50002A2A2ABE35EF06F02A5009E1040E295C43
:100C6000D8A035EF06F037EF06F01EEF06F0200EA5
:100C7000926E3F0E936EC00E19EC0BF04C0E086E88
:100C8000060E096EC5EC0AF030C001F031C002F06A
:100C900032C003F033C004F04DEC03F0809A80982A
:100CA00080968094010E19EC0BF081682DB85BEFF3
:100CB00006F05DEF06F0B2EF06F0F80E936E010E4F
:100CC00019EC0BF0800E19EC0BF0650E086E060E99
:100CD000096EC5EC0AF0000E0F6E010E0E6E67EC89
:100CE00009F00EC01BF00FC01CF010C01DF011C0A9
:100CF0001EF030C001F031C002F032C003F033C04A
:100D000004F01BC005F01CC006F01DC007F01EC09B
:100D100008F0EBEC09F001C030F002C031F003C084
:100D200032F004C033F0200E926E3F0E936EC00E70
:100D300019EC0BF04C0E086E060E096EC5EC0AF0AD
:100D400030C001F031C002F032C003F033C004F013
:100D50004DEC03F0809A809880968094010E19ECF7
:100D60000BF081682DBAB7EF06F0B9EF06F00EEF81
:100D700007F0F80E936E010E19EC0BF0800E19ECD3
:100D80000BF0900E086E060E096EC5EC0AF0000E10
:100D90000F6E010E0E6E67EC09F00EC01FF00FC053
:100DA00020F010C021F011C022F030C001F031C09D
:100DB00002F032C003F033C004F01FC005F020C0C1
:100DC00006F021C007F022C008F0E0EC08F001C0F6
:100DD00030F002C031F003C032F004C033F0200E16
:100DE000926E3F0E936EC00E19EC0BF04C0E086E17
:100DF000060E096EC5EC0AF030C001F031C002F0F9
:100E000032C003F033C004F04DEC03F0809A8098B8
:100E100080968094010E19EC0BF08168000E246E10
:100E2000010E236E23042410D8A419EF07F01BEF42
:100E300007F08BEF05F0800E19EC0BF0870E086EB3
:100E4000060E096EC5EC0AF0000E2C6E000E2B6E1D
:100E5000250E2B24D96E000E2C20DA6EDF5004EC08
:100E60000BF02B4A2C2A2CBE3FEF07F02C5009E147
:100E7000040E2B5CD8A03FEF07F041EF07F028EFFE
:100E800007F08BEF05F000EF00F0000E0A6E000E89
:100E9000096E000E0C6E81CF0BF0F6EF07F0000E1E
:100EA0000D6E010E0D24F66EF76A060EF72208008D
:100EB000F550FF0A811283B660EF07F062EF07F08A
:100EC0007AEF07F0000E026E0F0E016E65EC0AF06D
:100ED00083B66DEF07F06FEF07F07AEF07F083A6A8
:100EE00074EF07F076EF07F06FEF07F00D280C6E48
:100EF000ECEF07F083B47FEF07F081EF07F09AEF94
:100F000007F0000E026E0F0E016E65EC0AF083B45E
:100F10008CEF07F08EEF07F09AEF07F083A493EFC2
:100F200007F095EF07F08EEF07F00D50040F0C6EF1
:100F3000ECEF07F083B29FEF07F0A1EF07F0BAEFF5
:100F400007F0000E026E0F0E016E65EC0AF083B220
:100F5000ACEF07F0AEEF07F0BAEF07F083A2B3EF04
:100F600007F0B5EF07F0AEEF07F00D50070F0C6E6E
:100F7000ECEF07F083B0BFEF07F0C1EF07F0DAEF57
:100F800007F0000E026E0F0E016E65EC0AF083B0E2
:100F9000CCEF07F0CEEF07F0DAEF07F083A0D3EF46
:100FA00007F0D5EF07F0CEEF07F00D500A0F0C6EEB
:100FB000ECEF07F0010E0D24F66EF76A060EF7222D
:100FC0000800F55081160D2A020E0D64EAEF07F0B5
:100FD000ECEF07F051EF07F0000E026E050E016E08
:100FE00065EC0AF0050E0926000E0A220750095C7E
:100FF00008500A58D8A0FFEF07F001EF08F00AEFF9
:1010000008F007500810D8A408EF08F00AEF08F01D
:1010100012EF08F00C50D8B410EF08F012EF08F0FF
:101020004FEF07F00C50D8A418EF08F01AEF08F0B3
:101030001BEF08F00C680B0E0C18D8A422EF08F078
:1010400024EF08F026EF08F0000E0C6E0BC081FFB5
:101050000C501200000E956E000E836E000E936E03
:10106000000E816E000E086E000E076E000E836E7D
:10107000000E816E000E026E960E016E65EC0AF097
:10108000010E836E800E816E000E026E960E016E52
:1010900065EC0AF0020E836E400E816E000E026E49
:1010A000960E016E65EC0AF0040E836E200E816EC2
:1010B000000E026E960E016E65EC0AF0080E836E4D
:1010C000100E816E000E026E960E016E65EC0AF037
:1010D000100E836E080E816E000E026E960E016E6B
:1010E00065EC0AF0200E836E040E816E000E026E17
:1010F000960E016E65EC0AF0400E836E020E816E54
:10110000000E026E960E016E65EC0AF0800E836E84
:10111000010E816E000E026E960E016E65EC0AF0F5
:10112000400E836E020E816E000E026E960E016EF0
:1011300065EC0AF0200E836E040E816E000E026EC6
:10114000960E016E65EC0AF0100E836E080E816E2D
:10115000000E026E960E016E65EC0AF0080E836EAC
:10116000100E816E000E026E960E016E65EC0AF096
:10117000040E836E200E816E000E026E960E016EBE
:1011800065EC0AF0020E836E400E816E000E026E58
:10119000960E016E65EC0AF0010E836E010E816EF3
:1011A000074A082A08BEDDEF08F0085008E10704E6
:1011B000D8A0DDEF08F0DFEF08F036EF08F01200FE
:1011C000000E136E030E126E050E1224D96E000E61
:1011D0001320DA6E010E1224E16E000E1320E26E6F
:1011E000DE50E65CD8A0F7EF08F0F9EF08F015EF55
:1011F00009F0010E1224D96E000E1320DA6E050ECE
:101200001224E16E000E1320E26EE750096E010E0B
:101210001224E16E000E1320E26EE7500A6E0950B0
:101220000A5C300FDF6E4EEF09F0FF0E096EFF0E05
:101230000A6E12C00BF013C00CF009500B260A50B6
:101240000C22010E0B24D96E000E0C20DA6EFF0E5C
:101250000D6EFF0E0E6E12C00FF013C010F00D5089
:101260000F260E501022010E0F24E16E000E1020EA
:10127000E26EE750116E1104DF6E010E1224D96E7A
:10128000000E1320DA6E010E1224E16E000E132000
:10129000E26EE7500A0FDF6E124A132A1206D8A038
:1012A000130613BE5EEF09F0135006E11204D8B026
:1012B0005CEF09F05EEF09F0E4EF08F001C001F027
:1012C00002C002F003C003F004C004F01200000EDC
:1012D000146E300E156EDAEF09F00F0E956E000EDB
:1012E000086E000E076E45EC07F0300F156E000E0D
:1012F000956E0E500F10D8A480EF09F082EF09F020
:10130000A1EF09F0160E1424D96EDA6A000EDA2263
:1013100015501424DF6E160E1424D96EDA6A000EEE
:10132000DA22390EDF6497EF09F099EF09F0A1EFA7
:1013300009F0160E1424D96EDA6A000EDA22350E80
:10134000DF6E0E040F10D8A4A8EF09F0AAEF09F081
:10135000B2EF09F0160E1424D96EDA6A000EDA2202
:1013600015C0DFFF155004EC0BF03A0E1518D8A489
:10137000BCEF09F0BEEF09F0D9EF09F0C00E19EC8F
:101380000BF0000E136E1350010B04EC0BF0000E6B
:10139000026E140E016E65EC0AF0132A0F0E136430
:1013A000D4EF09F0D6EF09F0C3EF09F0C00E19EC45
:1013B0000BF0142A3B0E1564E0EF09F0E2EF09F0A0
:1013C0006DEF09F016C00EF017C00FF018C010F046
:1013D00019C011F01200000E136E030E126E010EF2
:1013E0001224D96E000E1320DA6E050E1224E16E5F
:1013F000000E1320E26EE750096E010E1224E16E1A
:10140000000E1320E26EE7500924D00FDF6E010EAC
:101410001224D96E000E1320DA6E390EDF6413EF3A
:101420000AF015EF0AF04CEF0AF0010E1224D96E03
:10143000000E1320DA6E010E1224E16E000E13204E
:10144000E26EE750F60FDF6EFF0E096EFF0E0A6EBA
:1014500012C00BF013C00CF009500B260A500C22DE
:10146000010E0B24D96E000E0C20DA6EFF0E0D6EED
:10147000FF0E0E6E12C00FF013C010F00D500F26AD
:101480000E501022010E0F24E16E000E1020E26EAD
:10149000E750116E1128DF6E1206D8A0130613BE96
:1014A0005CEF0AF0135006E11204D8B05AEF0AF0CC
:1014B0005CEF0AF0EFEF09F001C001F002C002F0AA
:1014C00003C003F004C004F01200000E046E000E0E
:1014D000036E8BEF0AF0000E056E280E056473EFA5
:1014E0000AF075EF0AF077EF0AF089EF0AF0000EC4
:1014F000066E020E06647FEF0AF081EF0AF083EFBA
:101500000AF086EF0AF0062A79EF0AF0052A6DEF55
:101510000AF0034A042A0150035C02500458D8A080
:1015200094EF0AF096EF0AF06BEF0AF01200849243
:101530008494000E026E140E016E65EC0AF0848233
:10154000380E19EC0BF0000E026E050E016E65EC04
:101550000AF0380E19EC0BF0000E026E010E016E4F
:1015600065EC0AF0380E19EC0BF0080E19EC0BF0D4
:101570000F0E19EC0BF0010E19EC0BF0380E19ECF4
:101580000BF0800E19EC0BF01200000E0C6ED8EF71
:101590000AF00C5008240A6E000E09200B6E0AC0D7
:1015A000F6FF0BC0F7FF0800F55004EC0BF00C2A17
:1015B0000C5008240A6E000E09200B6E0AC0F6FFBC
:1015C0000BC0F7FF0800F5500009D8A4EAEF0AF0B5
:1015D000ECEF0AF0C9EF0AF012005C0EF66E160E80
:1015E000F76E000EF86E00EE34F010EE0EF009000B
:1015F000F5CFEEFFE550E150FAE1000EF86E060E71
:10160000F76E000170EF05F0076E8482075035EC2D
:101610000BF08484000E026E030E016E65EC0AF07E
:101620008492000E026E030E016E65EC0AF0848255
:101630001200076E8482075035EC0BF08494000E84
:10164000026E030E016E65EC0AF08492000E026ECB
:10165000030E016E65EC0AF0848212000F00050093
:101660009600B80BE80396001400016E01C083FFDA
:02167000120066
:020000040020DA
:08000000FFFFFFFFFFFFFFFF00
:020000040030CA
:0E000000FF021F00FF8381FF0FC00FE00F40C3
:00000001FF
